{
  "_format": "hh-sol-artifact-1",
  "contractName": "DigiCert",
  "sourceName": "contracts/DigiCert.sol",
  "abi": [
    {
      "inputs": [],
      "stateMutability": "nonpayable",
      "type": "constructor"
    },
    {
      "anonymous": false,
      "inputs": [
        {
          "indexed": true,
          "internalType": "address",
          "name": "owner",
          "type": "address"
        },
        {
          "indexed": true,
          "internalType": "address",
          "name": "approved",
          "type": "address"
        },
        {
          "indexed": true,
          "internalType": "uint256",
          "name": "tokenId",
          "type": "uint256"
        }
      ],
      "name": "Approval",
      "type": "event"
    },
    {
      "anonymous": false,
      "inputs": [
        {
          "indexed": true,
          "internalType": "address",
          "name": "owner",
          "type": "address"
        },
        {
          "indexed": true,
          "internalType": "address",
          "name": "operator",
          "type": "address"
        },
        {
          "indexed": false,
          "internalType": "bool",
          "name": "approved",
          "type": "bool"
        }
      ],
      "name": "ApprovalForAll",
      "type": "event"
    },
    {
      "anonymous": false,
      "inputs": [
        {
          "indexed": false,
          "internalType": "uint256",
          "name": "_fromTokenId",
          "type": "uint256"
        },
        {
          "indexed": false,
          "internalType": "uint256",
          "name": "_toTokenId",
          "type": "uint256"
        }
      ],
      "name": "BatchMetadataUpdate",
      "type": "event"
    },
    {
      "anonymous": false,
      "inputs": [
        {
          "indexed": true,
          "internalType": "address",
          "name": "minterAddress",
          "type": "address"
        },
        {
          "indexed": true,
          "internalType": "string",
          "name": "detailsURI",
          "type": "string"
        }
      ],
      "name": "DetailsURIUpdated",
      "type": "event"
    },
    {
      "anonymous": false,
      "inputs": [
        {
          "indexed": false,
          "internalType": "uint256",
          "name": "_tokenId",
          "type": "uint256"
        }
      ],
      "name": "MetadataUpdate",
      "type": "event"
    },
    {
      "anonymous": false,
      "inputs": [
        {
          "indexed": true,
          "internalType": "address",
          "name": "minterAddress",
          "type": "address"
        },
        {
          "indexed": true,
          "internalType": "string",
          "name": "detailsURI",
          "type": "string"
        }
      ],
      "name": "MinterAdded",
      "type": "event"
    },
    {
      "anonymous": false,
      "inputs": [
        {
          "indexed": true,
          "internalType": "address",
          "name": "from",
          "type": "address"
        },
        {
          "indexed": true,
          "internalType": "address",
          "name": "to",
          "type": "address"
        },
        {
          "indexed": true,
          "internalType": "string",
          "name": "metadata",
          "type": "string"
        }
      ],
      "name": "NFTMinted",
      "type": "event"
    },
    {
      "anonymous": false,
      "inputs": [
        {
          "indexed": true,
          "internalType": "address",
          "name": "previousOwner",
          "type": "address"
        },
        {
          "indexed": true,
          "internalType": "address",
          "name": "newOwner",
          "type": "address"
        }
      ],
      "name": "OwnershipTransferred",
      "type": "event"
    },
    {
      "anonymous": false,
      "inputs": [
        {
          "indexed": true,
          "internalType": "address",
          "name": "from",
          "type": "address"
        },
        {
          "indexed": true,
          "internalType": "address",
          "name": "to",
          "type": "address"
        },
        {
          "indexed": true,
          "internalType": "uint256",
          "name": "tokenId",
          "type": "uint256"
        }
      ],
      "name": "Transfer",
      "type": "event"
    },
    {
      "inputs": [
        {
          "internalType": "address",
          "name": "_addr",
          "type": "address"
        },
        {
          "internalType": "string",
          "name": "_detailsURI",
          "type": "string"
        }
      ],
      "name": "addMinter",
      "outputs": [],
      "stateMutability": "nonpayable",
      "type": "function"
    },
    {
      "inputs": [
        {
          "internalType": "address",
          "name": "to",
          "type": "address"
        },
        {
          "internalType": "uint256",
          "name": "tokenId",
          "type": "uint256"
        }
      ],
      "name": "approve",
      "outputs": [],
      "stateMutability": "nonpayable",
      "type": "function"
    },
    {
      "inputs": [
        {
          "internalType": "address",
          "name": "owner",
          "type": "address"
        }
      ],
      "name": "balanceOf",
      "outputs": [
        {
          "internalType": "uint256",
          "name": "",
          "type": "uint256"
        }
      ],
      "stateMutability": "view",
      "type": "function"
    },
    {
      "inputs": [
        {
          "internalType": "uint256",
          "name": "_tokenID",
          "type": "uint256"
        }
      ],
      "name": "burn",
      "outputs": [],
      "stateMutability": "nonpayable",
      "type": "function"
    },
    {
      "inputs": [
        {
          "internalType": "address",
          "name": "",
          "type": "address"
        },
        {
          "internalType": "uint256",
          "name": "",
          "type": "uint256"
        }
      ],
      "name": "creators",
      "outputs": [
        {
          "internalType": "uint256",
          "name": "",
          "type": "uint256"
        }
      ],
      "stateMutability": "view",
      "type": "function"
    },
    {
      "inputs": [
        {
          "internalType": "uint256",
          "name": "tokenId",
          "type": "uint256"
        }
      ],
      "name": "getApproved",
      "outputs": [
        {
          "internalType": "address",
          "name": "",
          "type": "address"
        }
      ],
      "stateMutability": "view",
      "type": "function"
    },
    {
      "inputs": [
        {
          "internalType": "address",
          "name": "_addr",
          "type": "address"
        }
      ],
      "name": "getCreatorNFTs",
      "outputs": [
        {
          "internalType": "string[]",
          "name": "",
          "type": "string[]"
        }
      ],
      "stateMutability": "view",
      "type": "function"
    },
    {
      "inputs": [
        {
          "internalType": "address",
          "name": "_addr",
          "type": "address"
        }
      ],
      "name": "getCreatorsNFTtokenIDs",
      "outputs": [
        {
          "internalType": "uint256[]",
          "name": "",
          "type": "uint256[]"
        }
      ],
      "stateMutability": "view",
      "type": "function"
    },
    {
      "inputs": [
        {
          "internalType": "address",
          "name": "_addr",
          "type": "address"
        }
      ],
      "name": "getUserNFTs",
      "outputs": [
        {
          "internalType": "string[]",
          "name": "",
          "type": "string[]"
        }
      ],
      "stateMutability": "view",
      "type": "function"
    },
    {
      "inputs": [
        {
          "internalType": "address",
          "name": "_addr",
          "type": "address"
        }
      ],
      "name": "getUserNFTtokenIDs",
      "outputs": [
        {
          "internalType": "uint256[]",
          "name": "",
          "type": "uint256[]"
        }
      ],
      "stateMutability": "view",
      "type": "function"
    },
    {
      "inputs": [
        {
          "internalType": "address",
          "name": "owner",
          "type": "address"
        },
        {
          "internalType": "address",
          "name": "operator",
          "type": "address"
        }
      ],
      "name": "isApprovedForAll",
      "outputs": [
        {
          "internalType": "bool",
          "name": "",
          "type": "bool"
        }
      ],
      "stateMutability": "view",
      "type": "function"
    },
    {
      "inputs": [
        {
          "internalType": "address",
          "name": "_addr",
          "type": "address"
        },
        {
          "internalType": "uint256",
          "name": "_tokenID",
          "type": "uint256"
        }
      ],
      "name": "isCreatorOf",
      "outputs": [
        {
          "internalType": "bool",
          "name": "",
          "type": "bool"
        }
      ],
      "stateMutability": "view",
      "type": "function"
    },
    {
      "inputs": [
        {
          "internalType": "address",
          "name": "",
          "type": "address"
        }
      ],
      "name": "minters",
      "outputs": [
        {
          "internalType": "string",
          "name": "",
          "type": "string"
        }
      ],
      "stateMutability": "view",
      "type": "function"
    },
    {
      "inputs": [],
      "name": "name",
      "outputs": [
        {
          "internalType": "string",
          "name": "",
          "type": "string"
        }
      ],
      "stateMutability": "view",
      "type": "function"
    },
    {
      "inputs": [],
      "name": "owner",
      "outputs": [
        {
          "internalType": "address",
          "name": "",
          "type": "address"
        }
      ],
      "stateMutability": "view",
      "type": "function"
    },
    {
      "inputs": [
        {
          "internalType": "uint256",
          "name": "tokenId",
          "type": "uint256"
        }
      ],
      "name": "ownerOf",
      "outputs": [
        {
          "internalType": "address",
          "name": "",
          "type": "address"
        }
      ],
      "stateMutability": "view",
      "type": "function"
    },
    {
      "inputs": [],
      "name": "renounceOwnership",
      "outputs": [],
      "stateMutability": "nonpayable",
      "type": "function"
    },
    {
      "inputs": [
        {
          "internalType": "address",
          "name": "_to",
          "type": "address"
        },
        {
          "internalType": "string",
          "name": "_uri",
          "type": "string"
        }
      ],
      "name": "safeMint",
      "outputs": [],
      "stateMutability": "nonpayable",
      "type": "function"
    },
    {
      "inputs": [
        {
          "internalType": "address",
          "name": "from",
          "type": "address"
        },
        {
          "internalType": "address",
          "name": "to",
          "type": "address"
        },
        {
          "internalType": "uint256",
          "name": "tokenId",
          "type": "uint256"
        }
      ],
      "name": "safeTransferFrom",
      "outputs": [],
      "stateMutability": "nonpayable",
      "type": "function"
    },
    {
      "inputs": [
        {
          "internalType": "address",
          "name": "from",
          "type": "address"
        },
        {
          "internalType": "address",
          "name": "to",
          "type": "address"
        },
        {
          "internalType": "uint256",
          "name": "tokenId",
          "type": "uint256"
        },
        {
          "internalType": "bytes",
          "name": "data",
          "type": "bytes"
        }
      ],
      "name": "safeTransferFrom",
      "outputs": [],
      "stateMutability": "nonpayable",
      "type": "function"
    },
    {
      "inputs": [
        {
          "internalType": "address",
          "name": "operator",
          "type": "address"
        },
        {
          "internalType": "bool",
          "name": "approved",
          "type": "bool"
        }
      ],
      "name": "setApprovalForAll",
      "outputs": [],
      "stateMutability": "nonpayable",
      "type": "function"
    },
    {
      "inputs": [
        {
          "internalType": "bytes4",
          "name": "interfaceId",
          "type": "bytes4"
        }
      ],
      "name": "supportsInterface",
      "outputs": [
        {
          "internalType": "bool",
          "name": "",
          "type": "bool"
        }
      ],
      "stateMutability": "view",
      "type": "function"
    },
    {
      "inputs": [],
      "name": "symbol",
      "outputs": [
        {
          "internalType": "string",
          "name": "",
          "type": "string"
        }
      ],
      "stateMutability": "view",
      "type": "function"
    },
    {
      "inputs": [
        {
          "internalType": "uint256",
          "name": "tokenId",
          "type": "uint256"
        }
      ],
      "name": "tokenURI",
      "outputs": [
        {
          "internalType": "string",
          "name": "",
          "type": "string"
        }
      ],
      "stateMutability": "view",
      "type": "function"
    },
    {
      "inputs": [
        {
          "internalType": "address",
          "name": "from",
          "type": "address"
        },
        {
          "internalType": "address",
          "name": "to",
          "type": "address"
        },
        {
          "internalType": "uint256",
          "name": "tokenId",
          "type": "uint256"
        }
      ],
      "name": "transferFrom",
      "outputs": [],
      "stateMutability": "nonpayable",
      "type": "function"
    },
    {
      "inputs": [
        {
          "internalType": "address",
          "name": "newOwner",
          "type": "address"
        }
      ],
      "name": "transferOwnership",
      "outputs": [],
      "stateMutability": "nonpayable",
      "type": "function"
    },
    {
      "inputs": [
        {
          "internalType": "address",
          "name": "_addr",
          "type": "address"
        },
        {
          "internalType": "string",
          "name": "_detailsURI",
          "type": "string"
        }
      ],
      "name": "updateDetails",
      "outputs": [],
      "stateMutability": "nonpayable",
      "type": "function"
    },
    {
      "inputs": [
        {
          "internalType": "address",
          "name": "",
          "type": "address"
        },
        {
          "internalType": "uint256",
          "name": "",
          "type": "uint256"
        }
      ],
      "name": "users",
      "outputs": [
        {
          "internalType": "uint256",
          "name": "",
          "type": "uint256"
        }
      ],
      "stateMutability": "view",
      "type": "function"
    }
  ],
  "bytecode": "0x60806040523480156200001157600080fd5b506040518060400160405280600881526020017f44696769436572740000000000000000000000000000000000000000000000008152506040518060400160405280600281526020017f415500000000000000000000000000000000000000000000000000000000000081525081600090816200008f919062000412565b508060019081620000a1919062000412565b505050620000c4620000b8620000ca60201b60201c565b620000d260201b60201c565b620004f9565b600033905090565b6000600760009054906101000a900473ffffffffffffffffffffffffffffffffffffffff16905081600760006101000a81548173ffffffffffffffffffffffffffffffffffffffff021916908373ffffffffffffffffffffffffffffffffffffffff1602179055508173ffffffffffffffffffffffffffffffffffffffff168173ffffffffffffffffffffffffffffffffffffffff167f8be0079c531659141344cd1fd0a4f28419497f9722a3daafe3b4186f6b6457e060405160405180910390a35050565b600081519050919050565b7f4e487b7100000000000000000000000000000000000000000000000000000000600052604160045260246000fd5b7f4e487b7100000000000000000000000000000000000000000000000000000000600052602260045260246000fd5b600060028204905060018216806200021a57607f821691505b60208210810362000230576200022f620001d2565b5b50919050565b60008190508160005260206000209050919050565b60006020601f8301049050919050565b600082821b905092915050565b6000600883026200029a7fffffffffffffffffffffffffffffffffffffffffffffffffffffffffffffffff826200025b565b620002a686836200025b565b95508019841693508086168417925050509392505050565b6000819050919050565b6000819050919050565b6000620002f3620002ed620002e784620002be565b620002c8565b620002be565b9050919050565b6000819050919050565b6200030f83620002d2565b620003276200031e82620002fa565b84845462000268565b825550505050565b600090565b6200033e6200032f565b6200034b81848462000304565b505050565b5b8181101562000373576200036760008262000334565b60018101905062000351565b5050565b601f821115620003c2576200038c8162000236565b62000397846200024b565b81016020851015620003a7578190505b620003bf620003b6856200024b565b83018262000350565b50505b505050565b600082821c905092915050565b6000620003e760001984600802620003c7565b1980831691505092915050565b6000620004028383620003d4565b9150826002028217905092915050565b6200041d8262000198565b67ffffffffffffffff811115620004395762000438620001a3565b5b62000445825462000201565b6200045282828562000377565b600060209050601f8311600181146200048a576000841562000475578287015190505b620004818582620003f4565b865550620004f1565b601f1984166200049a8662000236565b60005b82811015620004c4578489015182556001820191506020850194506020810190506200049d565b86831015620004e45784890151620004e0601f891682620003d4565b8355505b6001600288020188555050505b505050505050565b61479980620005096000396000f3fe608060405234801561001057600080fd5b50600436106101c45760003560e01c80638b3ff6bf116100f9578063b88d4fde11610097578063d204c45e11610071578063d204c45e1461054d578063e985e9c514610569578063f2fde38b14610599578063f46eccc4146105b5576101c4565b8063b88d4fde146104d1578063c87b56dd146104ed578063d1fb13ce1461051d576101c4565b806390ef267d116100d357806390ef267d1461043757806395d89b4114610467578063a22cb46514610485578063a4454340146104a1576101c4565b80638b3ff6bf146103cd5780638da5cb5b146103e95780638f81ea6114610407576101c4565b806342966c681161016657806354a02f9e1161014057806354a02f9e146103335780636352211e1461036357806370a0823114610393578063715018a6146103c3576101c4565b806342966c68146102b757806347b5dfb7146102d357806352de4ee514610303576101c4565b8063095ea7b3116101a2578063095ea7b31461024757806323b872dd14610263578063424f3c8e1461027f57806342842e0e1461029b576101c4565b806301ffc9a7146101c957806306fdde03146101f9578063081812fc14610217575b600080fd5b6101e360048036038101906101de919061300d565b6105e5565b6040516101f09190613055565b60405180910390f35b610201610646565b60405161020e9190613100565b60405180910390f35b610231600480360381019061022c9190613158565b6106d8565b60405161023e91906131c6565b60405180910390f35b610261600480360381019061025c919061320d565b61071e565b005b61027d6004803603810190610278919061324d565b610835565b005b61029960048036038101906102949190613305565b610895565b005b6102b560048036038101906102b0919061324d565b610b08565b005b6102d160048036038101906102cc9190613158565b610b28565b005b6102ed60048036038101906102e89190613365565b610c9f565b6040516102fa9190613450565b60405180910390f35b61031d60048036038101906103189190613365565b610d36565b60405161032a919061357e565b60405180910390f35b61034d6004803603810190610348919061320d565b610e8f565b60405161035a91906135af565b60405180910390f35b61037d60048036038101906103789190613158565b610ec0565b60405161038a91906131c6565b60405180910390f35b6103ad60048036038101906103a89190613365565b610f46565b6040516103ba91906135af565b60405180910390f35b6103cb610ffd565b005b6103e760048036038101906103e29190613305565b611011565b005b6103f16110c8565b6040516103fe91906131c6565b60405180910390f35b610421600480360381019061041c9190613365565b6110f2565b60405161042e919061357e565b60405180910390f35b610451600480360381019061044c9190613365565b61134c565b60405161045e9190613450565b60405180910390f35b61046f6113e3565b60405161047c9190613100565b60405180910390f35b61049f600480360381019061049a91906135f6565b611475565b005b6104bb60048036038101906104b6919061320d565b61148b565b6040516104c891906135af565b60405180910390f35b6104eb60048036038101906104e69190613766565b6114bc565b005b61050760048036038101906105029190613158565b61151e565b6040516105149190613100565b60405180910390f35b6105376004803603810190610532919061320d565b611530565b6040516105449190613055565b60405180910390f35b61056760048036038101906105629190613305565b61161b565b005b610583600480360381019061057e91906137e9565b6118f0565b6040516105909190613055565b60405180910390f35b6105b360048036038101906105ae9190613365565b611984565b005b6105cf60048036038101906105ca9190613365565b611a07565b6040516105dc9190613100565b60405180910390f35b6000634906490660e01b7bffffffffffffffffffffffffffffffffffffffffffffffffffffffff1916827bffffffffffffffffffffffffffffffffffffffffffffffffffffffff1916148061063f575061063e82611aa7565b5b9050919050565b60606000805461065590613858565b80601f016020809104026020016040519081016040528092919081815260200182805461068190613858565b80156106ce5780601f106106a3576101008083540402835291602001916106ce565b820191906000526020600020905b8154815290600101906020018083116106b157829003601f168201915b5050505050905090565b60006106e382611b08565b6004600083815260200190815260200160002060009054906101000a900473ffffffffffffffffffffffffffffffffffffffff169050919050565b600061072982610ec0565b90508073ffffffffffffffffffffffffffffffffffffffff168373ffffffffffffffffffffffffffffffffffffffff1603610799576040517f08c379a0000000000000000000000000000000000000000000000000000000008152600401610790906138fb565b60405180910390fd5b8073ffffffffffffffffffffffffffffffffffffffff166107b8611b53565b73ffffffffffffffffffffffffffffffffffffffff1614806107e757506107e6816107e1611b53565b6118f0565b5b610826576040517f08c379a000000000000000000000000000000000000000000000000000000000815260040161081d9061398d565b60405180910390fd5b6108308383611b5b565b505050565b610846610840611b53565b82611c14565b610885576040517f08c379a000000000000000000000000000000000000000000000000000000000815260040161087c90613a1f565b60405180910390fd5b610890838383611ca9565b505050565b61089d611fa2565b6108fa82828080601f016020809104026020016040519081016040528093929190818152602001838380828437600081840152601f19601f8201169050808301925050505050505060405180602001604052806000815250612020565b1561093a576040517f08c379a000000000000000000000000000000000000000000000000000000000815260040161093190613a8b565b60405180910390fd5b610a1a600960008573ffffffffffffffffffffffffffffffffffffffff1673ffffffffffffffffffffffffffffffffffffffff168152602001908152602001600020805461098790613858565b80601f01602080910402602001604051908101604052809291908181526020018280546109b390613858565b8015610a005780601f106109d557610100808354040283529160200191610a00565b820191906000526020600020905b8154815290600101906020018083116109e357829003601f168201915b505050505060405180602001604052806000815250612020565b610a59576040517f08c379a0000000000000000000000000000000000000000000000000000000008152600401610a5090613af7565b60405180910390fd5b8181600960008673ffffffffffffffffffffffffffffffffffffffff1673ffffffffffffffffffffffffffffffffffffffff1681526020019081526020016000209182610aa7929190613cce565b508181604051610ab8929190613dce565b60405180910390208373ffffffffffffffffffffffffffffffffffffffff167facf1921979e1bd89a28b7c5a40cab173d71ea3f152c3c1fa85b16b0959ab37f860405160405180910390a3505050565b610b23838383604051806020016040528060008152506114bc565b505050565b33610c09600960008373ffffffffffffffffffffffffffffffffffffffff1673ffffffffffffffffffffffffffffffffffffffff1681526020019081526020016000208054610b7690613858565b80601f0160208091040260200160405190810160405280929190818152602001828054610ba290613858565b8015610bef5780601f10610bc457610100808354040283529160200191610bef565b820191906000526020600020905b815481529060010190602001808311610bd257829003601f168201915b505050505060405180602001604052806000815250612020565b15610c49576040517f08c379a0000000000000000000000000000000000000000000000000000000008152600401610c4090613e33565b60405180910390fd5b610c533383611530565b610c92576040517f08c379a0000000000000000000000000000000000000000000000000000000008152600401610c8990613ec5565b60405180910390fd5b610c9b82612079565b5050565b6060600b60008373ffffffffffffffffffffffffffffffffffffffff1673ffffffffffffffffffffffffffffffffffffffff168152602001908152602001600020805480602002602001604051908101604052809291908181526020018280548015610d2a57602002820191906000526020600020905b815481526020019060010190808311610d16575b50505050509050919050565b60606000610d4383610f46565b67ffffffffffffffff811115610d5c57610d5b61363b565b5b604051908082528060200260200182016040528015610d8f57816020015b6060815260200190600190039081610d7a5790505b5090506000600b60008573ffffffffffffffffffffffffffffffffffffffff1673ffffffffffffffffffffffffffffffffffffffff168152602001908152602001600020805480602002602001604051908101604052809291908181526020018280548015610e1d57602002820191906000526020600020905b815481526020019060010190808311610e09575b5050505050905060005b8151811015610e8457610e53828281518110610e4657610e45613ee5565b5b602002602001015161151e565b838281518110610e6657610e65613ee5565b5b60200260200101819052508080610e7c90613f43565b915050610e27565b508192505050919050565b600b6020528160005260406000208181548110610eab57600080fd5b90600052602060002001600091509150505481565b600080610ecc83612085565b9050600073ffffffffffffffffffffffffffffffffffffffff168173ffffffffffffffffffffffffffffffffffffffff1603610f3d576040517f08c379a0000000000000000000000000000000000000000000000000000000008152600401610f3490613fd7565b60405180910390fd5b80915050919050565b60008073ffffffffffffffffffffffffffffffffffffffff168273ffffffffffffffffffffffffffffffffffffffff1603610fb6576040517f08c379a0000000000000000000000000000000000000000000000000000000008152600401610fad90614069565b60405180910390fd5b600360008373ffffffffffffffffffffffffffffffffffffffff1673ffffffffffffffffffffffffffffffffffffffff168152602001908152602001600020549050919050565b611005611fa2565b61100f60006120c2565b565b611019611fa2565b8181600960008673ffffffffffffffffffffffffffffffffffffffff1673ffffffffffffffffffffffffffffffffffffffff1681526020019081526020016000209182611067929190613cce565b508181604051611078929190613dce565b60405180910390208373ffffffffffffffffffffffffffffffffffffffff167f46d583ea5eb26acd449402e2ad4a941977ffba891bb9fd9fceadba2e8a03a71f60405160405180910390a3505050565b6000600760009054906101000a900473ffffffffffffffffffffffffffffffffffffffff16905090565b6060816111d5600960008373ffffffffffffffffffffffffffffffffffffffff1673ffffffffffffffffffffffffffffffffffffffff168152602001908152602001600020805461114290613858565b80601f016020809104026020016040519081016040528092919081815260200182805461116e90613858565b80156111bb5780601f10611190576101008083540402835291602001916111bb565b820191906000526020600020905b81548152906001019060200180831161119e57829003601f168201915b505050505060405180602001604052806000815250612020565b15611215576040517f08c379a000000000000000000000000000000000000000000000000000000000815260040161120c90613e33565b60405180910390fd5b6000600a60008573ffffffffffffffffffffffffffffffffffffffff1673ffffffffffffffffffffffffffffffffffffffff1681526020019081526020016000208054806020026020016040519081016040528092919081815260200182805480156112a057602002820191906000526020600020905b81548152602001906001019080831161128c575b505050505090506000815167ffffffffffffffff8111156112c4576112c361363b565b5b6040519080825280602002602001820160405280156112f757816020015b60608152602001906001900390816112e25790505b50905060005b82518110156113405761130f8161151e565b82828151811061132257611321613ee5565b5b6020026020010181905250808061133890613f43565b9150506112fd565b50809350505050919050565b6060600b60008373ffffffffffffffffffffffffffffffffffffffff1673ffffffffffffffffffffffffffffffffffffffff1681526020019081526020016000208054806020026020016040519081016040528092919081815260200182805480156113d757602002820191906000526020600020905b8154815260200190600101908083116113c3575b50505050509050919050565b6060600180546113f290613858565b80601f016020809104026020016040519081016040528092919081815260200182805461141e90613858565b801561146b5780601f106114405761010080835404028352916020019161146b565b820191906000526020600020905b81548152906001019060200180831161144e57829003601f168201915b5050505050905090565b611487611480611b53565b8383612188565b5050565b600a60205281600052604060002081815481106114a757600080fd5b90600052602060002001600091509150505481565b6114cd6114c7611b53565b83611c14565b61150c576040517f08c379a000000000000000000000000000000000000000000000000000000000815260040161150390613a1f565b60405180910390fd5b611518848484846122f4565b50505050565b606061152982612350565b9050919050565b600080600a60008573ffffffffffffffffffffffffffffffffffffffff1673ffffffffffffffffffffffffffffffffffffffff1681526020019081526020016000208054806020026020016040519081016040528092919081815260200182805480156115bc57602002820191906000526020600020905b8154815260200190600101908083116115a8575b5050505050905060005b815181101561160e57838282815181106115e3576115e2613ee5565b5b6020026020010151036115fb57600192505050611615565b808061160690613f43565b9150506115c6565b5060009150505b92915050565b336116fc600960008373ffffffffffffffffffffffffffffffffffffffff1673ffffffffffffffffffffffffffffffffffffffff168152602001908152602001600020805461166990613858565b80601f016020809104026020016040519081016040528092919081815260200182805461169590613858565b80156116e25780601f106116b7576101008083540402835291602001916116e2565b820191906000526020600020905b8154815290600101906020018083116116c557829003601f168201915b505050505060405180602001604052806000815250612020565b1561173c576040517f08c379a000000000000000000000000000000000000000000000000000000000815260040161173390613e33565b60405180910390fd5b60006117486008612462565b90506117546008612470565b61175e8582612486565b6117ac8185858080601f016020809104026020016040519081016040528093929190818152602001838380828437600081840152601f19601f820116905080830192505050505050506124a4565b600a60003373ffffffffffffffffffffffffffffffffffffffff1673ffffffffffffffffffffffffffffffffffffffff168152602001908152602001600020819080600181540180825580915050600190039060005260206000200160009091909190915055600b60008673ffffffffffffffffffffffffffffffffffffffff1673ffffffffffffffffffffffffffffffffffffffff1681526020019081526020016000208190806001815401808255809150506001900390600052602060002001600090919091909150558383604051611888929190613dce565b60405180910390208573ffffffffffffffffffffffffffffffffffffffff163373ffffffffffffffffffffffffffffffffffffffff167eb8309557b74a94265d5875d186494bbcf01e52b85d619ec69b283db6ed0c2660405160405180910390a45050505050565b6000600560008473ffffffffffffffffffffffffffffffffffffffff1673ffffffffffffffffffffffffffffffffffffffff16815260200190815260200160002060008373ffffffffffffffffffffffffffffffffffffffff1673ffffffffffffffffffffffffffffffffffffffff16815260200190815260200160002060009054906101000a900460ff16905092915050565b61198c611fa2565b600073ffffffffffffffffffffffffffffffffffffffff168173ffffffffffffffffffffffffffffffffffffffff16036119fb576040517f08c379a00000000000000000000000000000000000000000000000000000000081526004016119f2906140fb565b60405180910390fd5b611a04816120c2565b50565b60096020528060005260406000206000915090508054611a2690613858565b80601f0160208091040260200160405190810160405280929190818152602001828054611a5290613858565b8015611a9f5780601f10611a7457610100808354040283529160200191611a9f565b820191906000526020600020905b815481529060010190602001808311611a8257829003601f168201915b505050505081565b6000634906490660e01b7bffffffffffffffffffffffffffffffffffffffffffffffffffffffff1916827bffffffffffffffffffffffffffffffffffffffffffffffffffffffff19161480611b015750611b0082612548565b5b9050919050565b611b118161262a565b611b50576040517f08c379a0000000000000000000000000000000000000000000000000000000008152600401611b4790613fd7565b60405180910390fd5b50565b600033905090565b816004600083815260200190815260200160002060006101000a81548173ffffffffffffffffffffffffffffffffffffffff021916908373ffffffffffffffffffffffffffffffffffffffff160217905550808273ffffffffffffffffffffffffffffffffffffffff16611bce83610ec0565b73ffffffffffffffffffffffffffffffffffffffff167f8c5be1e5ebec7d5bd14f71427d1e84f3dd0314c0f7b2291e5b200ac8c7c3b92560405160405180910390a45050565b600080611c2083610ec0565b90508073ffffffffffffffffffffffffffffffffffffffff168473ffffffffffffffffffffffffffffffffffffffff161480611c625750611c6181856118f0565b5b80611ca057508373ffffffffffffffffffffffffffffffffffffffff16611c88846106d8565b73ffffffffffffffffffffffffffffffffffffffff16145b91505092915050565b8273ffffffffffffffffffffffffffffffffffffffff16611cc982610ec0565b73ffffffffffffffffffffffffffffffffffffffff1614611d1f576040517f08c379a0000000000000000000000000000000000000000000000000000000008152600401611d169061418d565b60405180910390fd5b600073ffffffffffffffffffffffffffffffffffffffff168273ffffffffffffffffffffffffffffffffffffffff1603611d8e576040517f08c379a0000000000000000000000000000000000000000000000000000000008152600401611d859061421f565b60405180910390fd5b611d9b838383600161266b565b8273ffffffffffffffffffffffffffffffffffffffff16611dbb82610ec0565b73ffffffffffffffffffffffffffffffffffffffff1614611e11576040517f08c379a0000000000000000000000000000000000000000000000000000000008152600401611e089061418d565b60405180910390fd5b6004600082815260200190815260200160002060006101000a81549073ffffffffffffffffffffffffffffffffffffffff02191690556001600360008573ffffffffffffffffffffffffffffffffffffffff1673ffffffffffffffffffffffffffffffffffffffff168152602001908152602001600020600082825403925050819055506001600360008473ffffffffffffffffffffffffffffffffffffffff1673ffffffffffffffffffffffffffffffffffffffff16815260200190815260200160002060008282540192505081905550816002600083815260200190815260200160002060006101000a81548173ffffffffffffffffffffffffffffffffffffffff021916908373ffffffffffffffffffffffffffffffffffffffff160217905550808273ffffffffffffffffffffffffffffffffffffffff168473ffffffffffffffffffffffffffffffffffffffff167fddf252ad1be2c89b69c2b068fc378daa952ba7f163c4a11628f55a4df523b3ef60405160405180910390a4611f9d8383836001612671565b505050565b611faa611b53565b73ffffffffffffffffffffffffffffffffffffffff16611fc86110c8565b73ffffffffffffffffffffffffffffffffffffffff161461201e576040517f08c379a00000000000000000000000000000000000000000000000000000000081526004016120159061428b565b60405180910390fd5b565b60008160405160200161203391906142dc565b604051602081830303815290604052805190602001208360405160200161205a91906142dc565b6040516020818303038152906040528051906020012014905092915050565b61208281612677565b50565b60006002600083815260200190815260200160002060009054906101000a900473ffffffffffffffffffffffffffffffffffffffff169050919050565b6000600760009054906101000a900473ffffffffffffffffffffffffffffffffffffffff16905081600760006101000a81548173ffffffffffffffffffffffffffffffffffffffff021916908373ffffffffffffffffffffffffffffffffffffffff1602179055508173ffffffffffffffffffffffffffffffffffffffff168173ffffffffffffffffffffffffffffffffffffffff167f8be0079c531659141344cd1fd0a4f28419497f9722a3daafe3b4186f6b6457e060405160405180910390a35050565b8173ffffffffffffffffffffffffffffffffffffffff168373ffffffffffffffffffffffffffffffffffffffff16036121f6576040517f08c379a00000000000000000000000000000000000000000000000000000000081526004016121ed9061433f565b60405180910390fd5b80600560008573ffffffffffffffffffffffffffffffffffffffff1673ffffffffffffffffffffffffffffffffffffffff16815260200190815260200160002060008473ffffffffffffffffffffffffffffffffffffffff1673ffffffffffffffffffffffffffffffffffffffff16815260200190815260200160002060006101000a81548160ff0219169083151502179055508173ffffffffffffffffffffffffffffffffffffffff168373ffffffffffffffffffffffffffffffffffffffff167f17307eab39ab6107e8899845ad3d59bd9653f200f220920489ca2b5937696c31836040516122e79190613055565b60405180910390a3505050565b6122ff848484611ca9565b61230b848484846126ca565b61234a576040517f08c379a0000000000000000000000000000000000000000000000000000000008152600401612341906143d1565b60405180910390fd5b50505050565b606061235b82611b08565b600060066000848152602001908152602001600020805461237b90613858565b80601f01602080910402602001604051908101604052809291908181526020018280546123a790613858565b80156123f45780601f106123c9576101008083540402835291602001916123f4565b820191906000526020600020905b8154815290600101906020018083116123d757829003601f168201915b505050505090506000612405612851565b9050600081510361241a57819250505061245d565b60008251111561244f5780826040516020016124379291906143f1565b6040516020818303038152906040529250505061245d565b61245884612868565b925050505b919050565b600081600001549050919050565b6001816000016000828254019250508190555050565b6124a08282604051806020016040528060008152506128d0565b5050565b6124ad8261262a565b6124ec576040517f08c379a00000000000000000000000000000000000000000000000000000000081526004016124e390614487565b60405180910390fd5b8060066000848152602001908152602001600020908161250c91906144a7565b507ff8e1a15aba9398e019f0b49df1a4fde98ee17ae345cb5f6b5e2c27f5033e8ce78260405161253c91906135af565b60405180910390a15050565b60007f80ac58cd000000000000000000000000000000000000000000000000000000007bffffffffffffffffffffffffffffffffffffffffffffffffffffffff1916827bffffffffffffffffffffffffffffffffffffffffffffffffffffffff1916148061261357507f5b5e139f000000000000000000000000000000000000000000000000000000007bffffffffffffffffffffffffffffffffffffffffffffffffffffffff1916827bffffffffffffffffffffffffffffffffffffffffffffffffffffffff1916145b8061262357506126228261292b565b5b9050919050565b60008073ffffffffffffffffffffffffffffffffffffffff1661264c83612085565b73ffffffffffffffffffffffffffffffffffffffff1614159050919050565b50505050565b50505050565b61268081612995565b60006006600083815260200190815260200160002080546126a090613858565b9050146126c7576006600082815260200190815260200160002060006126c69190612f44565b5b50565b60006126eb8473ffffffffffffffffffffffffffffffffffffffff16612ae3565b15612844578373ffffffffffffffffffffffffffffffffffffffff1663150b7a02612714611b53565b8786866040518563ffffffff1660e01b815260040161273694939291906145ce565b6020604051808303816000875af192505050801561277257506040513d601f19601f8201168201806040525081019061276f919061462f565b60015b6127f4573d80600081146127a2576040519150601f19603f3d011682016040523d82523d6000602084013e6127a7565b606091505b5060008151036127ec576040517f08c379a00000000000000000000000000000000000000000000000000000000081526004016127e3906143d1565b60405180910390fd5b805181602001fd5b63150b7a0260e01b7bffffffffffffffffffffffffffffffffffffffffffffffffffffffff1916817bffffffffffffffffffffffffffffffffffffffffffffffffffffffff191614915050612849565b600190505b949350505050565b606060405180602001604052806000815250905090565b606061287382611b08565b600061287d612851565b9050600081511161289d57604051806020016040528060008152506128c8565b806128a784612b06565b6040516020016128b89291906143f1565b6040516020818303038152906040525b915050919050565b6128da8383612bd4565b6128e760008484846126ca565b612926576040517f08c379a000000000000000000000000000000000000000000000000000000000815260040161291d906143d1565b60405180910390fd5b505050565b60007f01ffc9a7000000000000000000000000000000000000000000000000000000007bffffffffffffffffffffffffffffffffffffffffffffffffffffffff1916827bffffffffffffffffffffffffffffffffffffffffffffffffffffffff1916149050919050565b60006129a082610ec0565b90506129b081600084600161266b565b6129b982610ec0565b90506004600083815260200190815260200160002060006101000a81549073ffffffffffffffffffffffffffffffffffffffff02191690556001600360008373ffffffffffffffffffffffffffffffffffffffff1673ffffffffffffffffffffffffffffffffffffffff168152602001908152602001600020600082825403925050819055506002600083815260200190815260200160002060006101000a81549073ffffffffffffffffffffffffffffffffffffffff021916905581600073ffffffffffffffffffffffffffffffffffffffff168273ffffffffffffffffffffffffffffffffffffffff167fddf252ad1be2c89b69c2b068fc378daa952ba7f163c4a11628f55a4df523b3ef60405160405180910390a4612adf816000846001612671565b5050565b6000808273ffffffffffffffffffffffffffffffffffffffff163b119050919050565b606060006001612b1584612df1565b01905060008167ffffffffffffffff811115612b3457612b3361363b565b5b6040519080825280601f01601f191660200182016040528015612b665781602001600182028036833780820191505090505b509050600082602001820190505b600115612bc9578080600190039150507f3031323334353637383961626364656600000000000000000000000000000000600a86061a8153600a8581612bbd57612bbc61465c565b5b04945060008503612b74575b819350505050919050565b600073ffffffffffffffffffffffffffffffffffffffff168273ffffffffffffffffffffffffffffffffffffffff1603612c43576040517f08c379a0000000000000000000000000000000000000000000000000000000008152600401612c3a906146d7565b60405180910390fd5b612c4c8161262a565b15612c8c576040517f08c379a0000000000000000000000000000000000000000000000000000000008152600401612c8390614743565b60405180910390fd5b612c9a60008383600161266b565b612ca38161262a565b15612ce3576040517f08c379a0000000000000000000000000000000000000000000000000000000008152600401612cda90614743565b60405180910390fd5b6001600360008473ffffffffffffffffffffffffffffffffffffffff1673ffffffffffffffffffffffffffffffffffffffff16815260200190815260200160002060008282540192505081905550816002600083815260200190815260200160002060006101000a81548173ffffffffffffffffffffffffffffffffffffffff021916908373ffffffffffffffffffffffffffffffffffffffff160217905550808273ffffffffffffffffffffffffffffffffffffffff16600073ffffffffffffffffffffffffffffffffffffffff167fddf252ad1be2c89b69c2b068fc378daa952ba7f163c4a11628f55a4df523b3ef60405160405180910390a4612ded600083836001612671565b5050565b600080600090507a184f03e93ff9f4daa797ed6e38ed64bf6a1f0100000000000000008310612e4f577a184f03e93ff9f4daa797ed6e38ed64bf6a1f0100000000000000008381612e4557612e4461465c565b5b0492506040810190505b6d04ee2d6d415b85acef81000000008310612e8c576d04ee2d6d415b85acef81000000008381612e8257612e8161465c565b5b0492506020810190505b662386f26fc100008310612ebb57662386f26fc100008381612eb157612eb061465c565b5b0492506010810190505b6305f5e1008310612ee4576305f5e1008381612eda57612ed961465c565b5b0492506008810190505b6127108310612f09576127108381612eff57612efe61465c565b5b0492506004810190505b60648310612f2c5760648381612f2257612f2161465c565b5b0492506002810190505b600a8310612f3b576001810190505b80915050919050565b508054612f5090613858565b6000825580601f10612f625750612f81565b601f016020900490600052602060002090810190612f809190612f84565b5b50565b5b80821115612f9d576000816000905550600101612f85565b5090565b6000604051905090565b600080fd5b600080fd5b60007fffffffff0000000000000000000000000000000000000000000000000000000082169050919050565b612fea81612fb5565b8114612ff557600080fd5b50565b60008135905061300781612fe1565b92915050565b60006020828403121561302357613022612fab565b5b600061303184828501612ff8565b91505092915050565b60008115159050919050565b61304f8161303a565b82525050565b600060208201905061306a6000830184613046565b92915050565b600081519050919050565b600082825260208201905092915050565b60005b838110156130aa57808201518184015260208101905061308f565b60008484015250505050565b6000601f19601f8301169050919050565b60006130d282613070565b6130dc818561307b565b93506130ec81856020860161308c565b6130f5816130b6565b840191505092915050565b6000602082019050818103600083015261311a81846130c7565b905092915050565b6000819050919050565b61313581613122565b811461314057600080fd5b50565b6000813590506131528161312c565b92915050565b60006020828403121561316e5761316d612fab565b5b600061317c84828501613143565b91505092915050565b600073ffffffffffffffffffffffffffffffffffffffff82169050919050565b60006131b082613185565b9050919050565b6131c0816131a5565b82525050565b60006020820190506131db60008301846131b7565b92915050565b6131ea816131a5565b81146131f557600080fd5b50565b600081359050613207816131e1565b92915050565b6000806040838503121561322457613223612fab565b5b6000613232858286016131f8565b925050602061324385828601613143565b9150509250929050565b60008060006060848603121561326657613265612fab565b5b6000613274868287016131f8565b9350506020613285868287016131f8565b925050604061329686828701613143565b9150509250925092565b600080fd5b600080fd5b600080fd5b60008083601f8401126132c5576132c46132a0565b5b8235905067ffffffffffffffff8111156132e2576132e16132a5565b5b6020830191508360018202830111156132fe576132fd6132aa565b5b9250929050565b60008060006040848603121561331e5761331d612fab565b5b600061332c868287016131f8565b935050602084013567ffffffffffffffff81111561334d5761334c612fb0565b5b613359868287016132af565b92509250509250925092565b60006020828403121561337b5761337a612fab565b5b6000613389848285016131f8565b91505092915050565b600081519050919050565b600082825260208201905092915050565b6000819050602082019050919050565b6133c781613122565b82525050565b60006133d983836133be565b60208301905092915050565b6000602082019050919050565b60006133fd82613392565b613407818561339d565b9350613412836133ae565b8060005b8381101561344357815161342a88826133cd565b9750613435836133e5565b925050600181019050613416565b5085935050505092915050565b6000602082019050818103600083015261346a81846133f2565b905092915050565b600081519050919050565b600082825260208201905092915050565b6000819050602082019050919050565b600082825260208201905092915050565b60006134ba82613070565b6134c4818561349e565b93506134d481856020860161308c565b6134dd816130b6565b840191505092915050565b60006134f483836134af565b905092915050565b6000602082019050919050565b600061351482613472565b61351e818561347d565b9350836020820285016135308561348e565b8060005b8581101561356c578484038952815161354d85826134e8565b9450613558836134fc565b925060208a01995050600181019050613534565b50829750879550505050505092915050565b600060208201905081810360008301526135988184613509565b905092915050565b6135a981613122565b82525050565b60006020820190506135c460008301846135a0565b92915050565b6135d38161303a565b81146135de57600080fd5b50565b6000813590506135f0816135ca565b92915050565b6000806040838503121561360d5761360c612fab565b5b600061361b858286016131f8565b925050602061362c858286016135e1565b9150509250929050565b600080fd5b7f4e487b7100000000000000000000000000000000000000000000000000000000600052604160045260246000fd5b613673826130b6565b810181811067ffffffffffffffff821117156136925761369161363b565b5b80604052505050565b60006136a5612fa1565b90506136b1828261366a565b919050565b600067ffffffffffffffff8211156136d1576136d061363b565b5b6136da826130b6565b9050602081019050919050565b82818337600083830152505050565b6000613709613704846136b6565b61369b565b90508281526020810184848401111561372557613724613636565b5b6137308482856136e7565b509392505050565b600082601f83011261374d5761374c6132a0565b5b813561375d8482602086016136f6565b91505092915050565b600080600080608085870312156137805761377f612fab565b5b600061378e878288016131f8565b945050602061379f878288016131f8565b93505060406137b087828801613143565b925050606085013567ffffffffffffffff8111156137d1576137d0612fb0565b5b6137dd87828801613738565b91505092959194509250565b60008060408385031215613800576137ff612fab565b5b600061380e858286016131f8565b925050602061381f858286016131f8565b9150509250929050565b7f4e487b7100000000000000000000000000000000000000000000000000000000600052602260045260246000fd5b6000600282049050600182168061387057607f821691505b60208210810361388357613882613829565b5b50919050565b7f4552433732313a20617070726f76616c20746f2063757272656e74206f776e6560008201527f7200000000000000000000000000000000000000000000000000000000000000602082015250565b60006138e560218361307b565b91506138f082613889565b604082019050919050565b60006020820190508181036000830152613914816138d8565b9050919050565b7f4552433732313a20617070726f76652063616c6c6572206973206e6f7420746f60008201527f6b656e206f776e6572206f7220617070726f76656420666f7220616c6c000000602082015250565b6000613977603d8361307b565b91506139828261391b565b604082019050919050565b600060208201905081810360008301526139a68161396a565b9050919050565b7f4552433732313a2063616c6c6572206973206e6f7420746f6b656e206f776e6560008201527f72206f7220617070726f76656400000000000000000000000000000000000000602082015250565b6000613a09602d8361307b565b9150613a14826139ad565b604082019050919050565b60006020820190508181036000830152613a38816139fc565b9050919050565b7f526571756972652044657461696c732055524900000000000000000000000000600082015250565b6000613a7560138361307b565b9150613a8082613a3f565b602082019050919050565b60006020820190508181036000830152613aa481613a68565b9050919050565b7f4d696e74657220616464656420616c6472656164790000000000000000000000600082015250565b6000613ae160158361307b565b9150613aec82613aab565b602082019050919050565b60006020820190508181036000830152613b1081613ad4565b9050919050565b600082905092915050565b60008190508160005260206000209050919050565b60006020601f8301049050919050565b600082821b905092915050565b600060088302613b847fffffffffffffffffffffffffffffffffffffffffffffffffffffffffffffffff82613b47565b613b8e8683613b47565b95508019841693508086168417925050509392505050565b6000819050919050565b6000613bcb613bc6613bc184613122565b613ba6565b613122565b9050919050565b6000819050919050565b613be583613bb0565b613bf9613bf182613bd2565b848454613b54565b825550505050565b600090565b613c0e613c01565b613c19818484613bdc565b505050565b5b81811015613c3d57613c32600082613c06565b600181019050613c1f565b5050565b601f821115613c8257613c5381613b22565b613c5c84613b37565b81016020851015613c6b578190505b613c7f613c7785613b37565b830182613c1e565b50505b505050565b600082821c905092915050565b6000613ca560001984600802613c87565b1980831691505092915050565b6000613cbe8383613c94565b9150826002028217905092915050565b613cd88383613b17565b67ffffffffffffffff811115613cf157613cf061363b565b5b613cfb8254613858565b613d06828285613c41565b6000601f831160018114613d355760008415613d23578287013590505b613d2d8582613cb2565b865550613d95565b601f198416613d4386613b22565b60005b82811015613d6b57848901358255600182019150602085019450602081019050613d46565b86831015613d885784890135613d84601f891682613c94565b8355505b6001600288020188555050505b50505050505050565b600081905092915050565b6000613db58385613d9e565b9350613dc28385846136e7565b82840190509392505050565b6000613ddb828486613da9565b91508190509392505050565b7f4e6f742061204d696e7465720000000000000000000000000000000000000000600082015250565b6000613e1d600c8361307b565b9150613e2882613de7565b602082019050919050565b60006020820190508181036000830152613e4c81613e10565b9050919050565b7f556e617574686f72697a656421204572726f723a204e6f74207468652043726560008201527f61746f722f497373756572206f66204e46540000000000000000000000000000602082015250565b6000613eaf60328361307b565b9150613eba82613e53565b604082019050919050565b60006020820190508181036000830152613ede81613ea2565b9050919050565b7f4e487b7100000000000000000000000000000000000000000000000000000000600052603260045260246000fd5b7f4e487b7100000000000000000000000000000000000000000000000000000000600052601160045260246000fd5b6000613f4e82613122565b91507fffffffffffffffffffffffffffffffffffffffffffffffffffffffffffffffff8203613f8057613f7f613f14565b5b600182019050919050565b7f4552433732313a20696e76616c696420746f6b656e2049440000000000000000600082015250565b6000613fc160188361307b565b9150613fcc82613f8b565b602082019050919050565b60006020820190508181036000830152613ff081613fb4565b9050919050565b7f4552433732313a2061646472657373207a65726f206973206e6f74206120766160008201527f6c6964206f776e65720000000000000000000000000000000000000000000000602082015250565b600061405360298361307b565b915061405e82613ff7565b604082019050919050565b6000602082019050818103600083015261408281614046565b9050919050565b7f4f776e61626c653a206e6577206f776e657220697320746865207a65726f206160008201527f6464726573730000000000000000000000000000000000000000000000000000602082015250565b60006140e560268361307b565b91506140f082614089565b604082019050919050565b60006020820190508181036000830152614114816140d8565b9050919050565b7f4552433732313a207472616e736665722066726f6d20696e636f72726563742060008201527f6f776e6572000000000000000000000000000000000000000000000000000000602082015250565b600061417760258361307b565b91506141828261411b565b604082019050919050565b600060208201905081810360008301526141a68161416a565b9050919050565b7f4552433732313a207472616e7366657220746f20746865207a65726f2061646460008201527f7265737300000000000000000000000000000000000000000000000000000000602082015250565b600061420960248361307b565b9150614214826141ad565b604082019050919050565b60006020820190508181036000830152614238816141fc565b9050919050565b7f4f776e61626c653a2063616c6c6572206973206e6f7420746865206f776e6572600082015250565b600061427560208361307b565b91506142808261423f565b602082019050919050565b600060208201905081810360008301526142a481614268565b9050919050565b60006142b682613070565b6142c08185613d9e565b93506142d081856020860161308c565b80840191505092915050565b60006142e882846142ab565b915081905092915050565b7f4552433732313a20617070726f766520746f2063616c6c657200000000000000600082015250565b600061432960198361307b565b9150614334826142f3565b602082019050919050565b600060208201905081810360008301526143588161431c565b9050919050565b7f4552433732313a207472616e7366657220746f206e6f6e20455243373231526560008201527f63656976657220696d706c656d656e7465720000000000000000000000000000602082015250565b60006143bb60328361307b565b91506143c68261435f565b604082019050919050565b600060208201905081810360008301526143ea816143ae565b9050919050565b60006143fd82856142ab565b915061440982846142ab565b91508190509392505050565b7f45524337323155524953746f726167653a2055524920736574206f66206e6f6e60008201527f6578697374656e7420746f6b656e000000000000000000000000000000000000602082015250565b6000614471602e8361307b565b915061447c82614415565b604082019050919050565b600060208201905081810360008301526144a081614464565b9050919050565b6144b082613070565b67ffffffffffffffff8111156144c9576144c861363b565b5b6144d38254613858565b6144de828285613c41565b600060209050601f83116001811461451157600084156144ff578287015190505b6145098582613cb2565b865550614571565b601f19841661451f86613b22565b60005b8281101561454757848901518255600182019150602085019450602081019050614522565b868310156145645784890151614560601f891682613c94565b8355505b6001600288020188555050505b505050505050565b600081519050919050565b600082825260208201905092915050565b60006145a082614579565b6145aa8185614584565b93506145ba81856020860161308c565b6145c3816130b6565b840191505092915050565b60006080820190506145e360008301876131b7565b6145f060208301866131b7565b6145fd60408301856135a0565b818103606083015261460f8184614595565b905095945050505050565b60008151905061462981612fe1565b92915050565b60006020828403121561464557614644612fab565b5b60006146538482850161461a565b91505092915050565b7f4e487b7100000000000000000000000000000000000000000000000000000000600052601260045260246000fd5b7f4552433732313a206d696e7420746f20746865207a65726f2061646472657373600082015250565b60006146c160208361307b565b91506146cc8261468b565b602082019050919050565b600060208201905081810360008301526146f0816146b4565b9050919050565b7f4552433732313a20746f6b656e20616c7265616479206d696e74656400000000600082015250565b600061472d601c8361307b565b9150614738826146f7565b602082019050919050565b6000602082019050818103600083015261475c81614720565b905091905056fea2646970667358221220a6a7874ef57b4a6feb83c1b1b3a106cf1902930bd0e57848d3b4468b709b799e64736f6c63430008130033",
  "linkReferences": {},
  "deployedLinkReferences": {}
}